:100000000C9446000C945D000C945D000C945D0013
:100010000C945D000C945D000C945D000C945D00EC
:100020000C945D000C945D000C945D000C945D00DC
:100030000C945D000C945D000C945D000C945D00CC
:100040000C945D000C945D000C945D000C945D00BC
:100050000C945D000C945D000C945D000C945D00AC
:100060000C945D000C945D000C945D000C945D009C
:100070000C945D000C945D000C945D000C945D008C
:100080000C945D000C945D000C945D0011241FBE67
:10009000CFEFD0E4DEBFCDBF11E0A0E0B1E0ECEEE9
:1000A000F1E000E00BBF02C007900D92AE30B10747
:1000B000D9F70E9488000C94F4000C940000CF93B0
:1000C000DF9300D01F92CDB7DEB789837B836A832D
:1000D00089818A3031F48A819B81BC018DE00E9444
:1000E0005F0080EC90E0FC018081882F90E08072BE
:1000F00099270097B1F386EC90E02981FC012083D9
:1001000080E090E00F900F900F90DF91CF910895D5
:10011000CF93DF9300D000D01F92CDB7DEB781E23E
:1001200090E0FC01108282E290E02FEFFC0120833E
:1001300084E290E0FC01108285E290E02FEFFC0168
:10014000208387E290E02FEFFC01208388E290E09B
:10015000FC01108219821A821B821D821C8280E29D
:1001600090E0FC0180818A8383E290E0FC01808141
:1001700089831B821D821C8212C08A81882F90E095
:1001800081709927009719F08B818F5F8B838A810B
:1001900086958A838C819D8101969D838C838C8139
:1001A0009D818830910548F31D821C8212C089818F
:1001B000882F90E081709927009719F08B818F5FCD
:1001C0008B838981869589838C819D8101969D830E
:1001D0008C838C819D818830910548F388E290E082
:0C01E0002B81FC012083B9CFF894FFCFE5
:0E01EC0000000002000000005F0000000000A4
:00000001FF
